{
  "_format": "hh-sol-artifact-1",
  "contractName": "ExamResults",
  "sourceName": "contracts/ExamResults.sol",
  "abi": [
    {
      "inputs": [
        {
          "internalType": "address",
          "name": "_examManager",
          "type": "address"
        },
        {
          "internalType": "address",
          "name": "_examSubmission",
          "type": "address"
        }
      ],
      "stateMutability": "nonpayable",
      "type": "constructor"
    },
    {
      "anonymous": false,
      "inputs": [
        {
          "indexed": true,
          "internalType": "address",
          "name": "student",
          "type": "address"
        },
        {
          "indexed": true,
          "internalType": "uint256",
          "name": "examId",
          "type": "uint256"
        },
        {
          "indexed": false,
          "internalType": "uint256",
          "name": "score",
          "type": "uint256"
        },
        {
          "indexed": false,
          "internalType": "uint256",
          "name": "totalMarks",
          "type": "uint256"
        }
      ],
      "name": "ResultPublished",
      "type": "event"
    },
    {
      "inputs": [],
      "name": "admin",
      "outputs": [
        {
          "internalType": "address",
          "name": "",
          "type": "address"
        }
      ],
      "stateMutability": "view",
      "type": "function"
    },
    {
      "inputs": [],
      "name": "examManager",
      "outputs": [
        {
          "internalType": "contract IExamManager",
          "name": "",
          "type": "address"
        }
      ],
      "stateMutability": "view",
      "type": "function"
    },
    {
      "inputs": [],
      "name": "examSubmission",
      "outputs": [
        {
          "internalType": "contract IExamSubmission",
          "name": "",
          "type": "address"
        }
      ],
      "stateMutability": "view",
      "type": "function"
    },
    {
      "inputs": [
        {
          "internalType": "address",
          "name": "_student",
          "type": "address"
        }
      ],
      "name": "getAllResults",
      "outputs": [
        {
          "components": [
            {
              "internalType": "uint256",
              "name": "examId",
              "type": "uint256"
            },
            {
              "internalType": "uint256",
              "name": "score",
              "type": "uint256"
            },
            {
              "internalType": "uint256",
              "name": "totalMarks",
              "type": "uint256"
            },
            {
              "internalType": "uint256",
              "name": "timestamp",
              "type": "uint256"
            },
            {
              "internalType": "string",
              "name": "ipfsHash",
              "type": "string"
            }
          ],
          "internalType": "struct ExamResults.Result[]",
          "name": "",
          "type": "tuple[]"
        }
      ],
      "stateMutability": "view",
      "type": "function"
    },
    {
      "inputs": [
        {
          "internalType": "address",
          "name": "",
          "type": "address"
        },
        {
          "internalType": "uint256",
          "name": "",
          "type": "uint256"
        }
      ],
      "name": "studentResults",
      "outputs": [
        {
          "internalType": "uint256",
          "name": "examId",
          "type": "uint256"
        },
        {
          "internalType": "uint256",
          "name": "score",
          "type": "uint256"
        },
        {
          "internalType": "uint256",
          "name": "totalMarks",
          "type": "uint256"
        },
        {
          "internalType": "uint256",
          "name": "timestamp",
          "type": "uint256"
        },
        {
          "internalType": "string",
          "name": "ipfsHash",
          "type": "string"
        }
      ],
      "stateMutability": "view",
      "type": "function"
    },
    {
      "inputs": [
        {
          "internalType": "address",
          "name": "_student",
          "type": "address"
        },
        {
          "internalType": "uint256",
          "name": "_examId",
          "type": "uint256"
        },
        {
          "internalType": "uint256",
          "name": "_score",
          "type": "uint256"
        },
        {
          "internalType": "string",
          "name": "_ipfsHash",
          "type": "string"
        }
      ],
      "name": "submitResult",
      "outputs": [],
      "stateMutability": "nonpayable",
      "type": "function"
    }
  ],
  "bytecode": "0x608060405234801561001057600080fd5b5060405161187d38038061187d8339818101604052810190610032919061015f565b33600260006101000a81548173ffffffffffffffffffffffffffffffffffffffff021916908373ffffffffffffffffffffffffffffffffffffffff16021790555081600360006101000a81548173ffffffffffffffffffffffffffffffffffffffff021916908373ffffffffffffffffffffffffffffffffffffffff16021790555080600460006101000a81548173ffffffffffffffffffffffffffffffffffffffff021916908373ffffffffffffffffffffffffffffffffffffffff160217905550505061019f565b600080fd5b600073ffffffffffffffffffffffffffffffffffffffff82169050919050565b600061012c82610101565b9050919050565b61013c81610121565b811461014757600080fd5b50565b60008151905061015981610133565b92915050565b60008060408385031215610176576101756100fc565b5b60006101848582860161014a565b92505060206101958582860161014a565b9150509250929050565b6116cf806101ae6000396000f3fe608060405234801561001057600080fd5b50600436106100625760003560e01c806342909a92146100675780635354b23b1461008557806355c94eeb146100a157806369df31a8146100d15780637691ce2014610105578063f851a44014610123575b600080fd5b61006f610141565b60405161007c91906109e3565b60405180910390f35b61009f600480360381019061009a9190610bcc565b610167565b005b6100bb60048036038101906100b69190610c4f565b610585565b6040516100c89190610e42565b60405180910390f35b6100eb60048036038101906100e69190610e64565b61081e565b6040516100fc959493929190610efd565b60405180910390f35b61010d6108e9565b60405161011a9190610f78565b60405180910390f35b61012b61090f565b6040516101389190610fa2565b60405180910390f35b600460009054906101000a900473ffffffffffffffffffffffffffffffffffffffff1681565b600260009054906101000a900473ffffffffffffffffffffffffffffffffffffffff1673ffffffffffffffffffffffffffffffffffffffff163373ffffffffffffffffffffffffffffffffffffffff16146101f7576040517f08c379a00000000000000000000000000000000000000000000000000000000081526004016101ee9061102f565b60405180910390fd5b600081511161023b576040517f08c379a00000000000000000000000000000000000000000000000000000000081526004016102329061109b565b60405180910390fd5b6000600360009054906101000a900473ffffffffffffffffffffffffffffffffffffffff1673ffffffffffffffffffffffffffffffffffffffff1663f97563d5856040518263ffffffff1660e01b815260040161029891906110bb565b600060405180830381865afa1580156102b5573d6000803e3d6000fd5b505050506040513d6000823e3d601f19601f820116820180604052508101906102de919061115b565b91505060008111610324576040517f08c379a000000000000000000000000000000000000000000000000000000000815260040161031b90611203565b60405180910390fd5b6000600460009054906101000a900473ffffffffffffffffffffffffffffffffffffffff1673ffffffffffffffffffffffffffffffffffffffff1663d9809dbb87876040518363ffffffff1660e01b8152600401610383929190611223565b600060405180830381865afa1580156103a0573d6000803e3d6000fd5b505050506040513d6000823e3d601f19601f820116820180604052508101906103c9919061124c565b9050600081511161040f576040517f08c379a0000000000000000000000000000000000000000000000000000000008152600401610406906112e1565b60405180910390fd5b6040518060a0016040528086815260200185815260200183815260200142815260200184815250600160008873ffffffffffffffffffffffffffffffffffffffff1673ffffffffffffffffffffffffffffffffffffffff16815260200190815260200160002060008781526020019081526020016000206000820151816000015560208201518160010155604082015181600201556060820151816003015560808201518160040190816104c39190611503565b509050506000808773ffffffffffffffffffffffffffffffffffffffff1673ffffffffffffffffffffffffffffffffffffffff168152602001908152602001600020859080600181540180825580915050600190039060005260206000200160009091909190915055848673ffffffffffffffffffffffffffffffffffffffff167f4f2137a4ca0e22627676c7fdb1b2f95faf370c25c6e44ffa0c510c9a40994db786856040516105759291906115d5565b60405180910390a3505050505050565b606060008060008473ffffffffffffffffffffffffffffffffffffffff1673ffffffffffffffffffffffffffffffffffffffff16815260200190815260200160002080549050905060008111610610576040517f08c379a00000000000000000000000000000000000000000000000000000000081526004016106079061164a565b60405180910390fd5b60008167ffffffffffffffff81111561062c5761062b610aa1565b5b60405190808252806020026020018201604052801561066557816020015b610652610935565b81526020019060019003908161064a5790505b50905060005b828110156108135760008060008773ffffffffffffffffffffffffffffffffffffffff1673ffffffffffffffffffffffffffffffffffffffff16815260200190815260200160002082815481106106c5576106c461166a565b5b90600052602060002001549050600160008773ffffffffffffffffffffffffffffffffffffffff1673ffffffffffffffffffffffffffffffffffffffff16815260200190815260200160002060008281526020019081526020016000206040518060a00160405290816000820154815260200160018201548152602001600282015481526020016003820154815260200160048201805461076590611330565b80601f016020809104026020016040519081016040528092919081815260200182805461079190611330565b80156107de5780601f106107b3576101008083540402835291602001916107de565b820191906000526020600020905b8154815290600101906020018083116107c157829003601f168201915b5050505050815250508383815181106107fa576107f961166a565b5b602002602001018190525050808060010191505061066b565b508092505050919050565b60016020528160005260406000206020528060005260406000206000915091505080600001549080600101549080600201549080600301549080600401805461086690611330565b80601f016020809104026020016040519081016040528092919081815260200182805461089290611330565b80156108df5780601f106108b4576101008083540402835291602001916108df565b820191906000526020600020905b8154815290600101906020018083116108c257829003601f168201915b5050505050905085565b600360009054906101000a900473ffffffffffffffffffffffffffffffffffffffff1681565b600260009054906101000a900473ffffffffffffffffffffffffffffffffffffffff1681565b6040518060a0016040528060008152602001600081526020016000815260200160008152602001606081525090565b600073ffffffffffffffffffffffffffffffffffffffff82169050919050565b6000819050919050565b60006109a96109a461099f84610964565b610984565b610964565b9050919050565b60006109bb8261098e565b9050919050565b60006109cd826109b0565b9050919050565b6109dd816109c2565b82525050565b60006020820190506109f860008301846109d4565b92915050565b6000604051905090565b600080fd5b600080fd5b6000610a1d82610964565b9050919050565b610a2d81610a12565b8114610a3857600080fd5b50565b600081359050610a4a81610a24565b92915050565b6000819050919050565b610a6381610a50565b8114610a6e57600080fd5b50565b600081359050610a8081610a5a565b92915050565b600080fd5b600080fd5b6000601f19601f8301169050919050565b7f4e487b7100000000000000000000000000000000000000000000000000000000600052604160045260246000fd5b610ad982610a90565b810181811067ffffffffffffffff82111715610af857610af7610aa1565b5b80604052505050565b6000610b0b6109fe565b9050610b178282610ad0565b919050565b600067ffffffffffffffff821115610b3757610b36610aa1565b5b610b4082610a90565b9050602081019050919050565b82818337600083830152505050565b6000610b6f610b6a84610b1c565b610b01565b905082815260208101848484011115610b8b57610b8a610a8b565b5b610b96848285610b4d565b509392505050565b600082601f830112610bb357610bb2610a86565b5b8135610bc3848260208601610b5c565b91505092915050565b60008060008060808587031215610be657610be5610a08565b5b6000610bf487828801610a3b565b9450506020610c0587828801610a71565b9350506040610c1687828801610a71565b925050606085013567ffffffffffffffff811115610c3757610c36610a0d565b5b610c4387828801610b9e565b91505092959194509250565b600060208284031215610c6557610c64610a08565b5b6000610c7384828501610a3b565b91505092915050565b600081519050919050565b600082825260208201905092915050565b6000819050602082019050919050565b610cb181610a50565b82525050565b600081519050919050565b600082825260208201905092915050565b60005b83811015610cf1578082015181840152602081019050610cd6565b60008484015250505050565b6000610d0882610cb7565b610d128185610cc2565b9350610d22818560208601610cd3565b610d2b81610a90565b840191505092915050565b600060a083016000830151610d4e6000860182610ca8565b506020830151610d616020860182610ca8565b506040830151610d746040860182610ca8565b506060830151610d876060860182610ca8565b5060808301518482036080860152610d9f8282610cfd565b9150508091505092915050565b6000610db88383610d36565b905092915050565b6000602082019050919050565b6000610dd882610c7c565b610de28185610c87565b935083602082028501610df485610c98565b8060005b85811015610e305784840389528151610e118582610dac565b9450610e1c83610dc0565b925060208a01995050600181019050610df8565b50829750879550505050505092915050565b60006020820190508181036000830152610e5c8184610dcd565b905092915050565b60008060408385031215610e7b57610e7a610a08565b5b6000610e8985828601610a3b565b9250506020610e9a85828601610a71565b9150509250929050565b610ead81610a50565b82525050565b600082825260208201905092915050565b6000610ecf82610cb7565b610ed98185610eb3565b9350610ee9818560208601610cd3565b610ef281610a90565b840191505092915050565b600060a082019050610f126000830188610ea4565b610f1f6020830187610ea4565b610f2c6040830186610ea4565b610f396060830185610ea4565b8181036080830152610f4b8184610ec4565b90509695505050505050565b6000610f62826109b0565b9050919050565b610f7281610f57565b82525050565b6000602082019050610f8d6000830184610f69565b92915050565b610f9c81610a12565b82525050565b6000602082019050610fb76000830184610f93565b92915050565b7f4f6e6c792061646d696e2063616e20706572666f726d2074686973206163746960008201527f6f6e000000000000000000000000000000000000000000000000000000000000602082015250565b6000611019602283610eb3565b915061102482610fbd565b604082019050919050565b600060208201905081810360008301526110488161100c565b9050919050565b7f496e76616c696420495046532048617368000000000000000000000000000000600082015250565b6000611085601183610eb3565b91506110908261104f565b602082019050919050565b600060208201905081810360008301526110b481611078565b9050919050565b60006020820190506110d06000830184610ea4565b92915050565b60006110e96110e484610b1c565b610b01565b90508281526020810184848401111561110557611104610a8b565b5b611110848285610cd3565b509392505050565b600082601f83011261112d5761112c610a86565b5b815161113d8482602086016110d6565b91505092915050565b60008151905061115581610a5a565b92915050565b6000806040838503121561117257611171610a08565b5b600083015167ffffffffffffffff8111156111905761118f610a0d565b5b61119c85828601611118565b92505060206111ad85828601611146565b9150509250929050565b7f4578616d20646f6573206e6f7420657869737400000000000000000000000000600082015250565b60006111ed601383610eb3565b91506111f8826111b7565b602082019050919050565b6000602082019050818103600083015261121c816111e0565b9050919050565b60006040820190506112386000830185610f93565b6112456020830184610ea4565b9392505050565b60006020828403121561126257611261610a08565b5b600082015167ffffffffffffffff8111156112805761127f610a0d565b5b61128c84828501611118565b91505092915050565b7f4e6f207375626d697373696f6e20666f756e6400000000000000000000000000600082015250565b60006112cb601383610eb3565b91506112d682611295565b602082019050919050565b600060208201905081810360008301526112fa816112be565b9050919050565b7f4e487b7100000000000000000000000000000000000000000000000000000000600052602260045260246000fd5b6000600282049050600182168061134857607f821691505b60208210810361135b5761135a611301565b5b50919050565b60008190508160005260206000209050919050565b60006020601f8301049050919050565b600082821b905092915050565b6000600883026113c37fffffffffffffffffffffffffffffffffffffffffffffffffffffffffffffffff82611386565b6113cd8683611386565b95508019841693508086168417925050509392505050565b60006114006113fb6113f684610a50565b610984565b610a50565b9050919050565b6000819050919050565b61141a836113e5565b61142e61142682611407565b848454611393565b825550505050565b600090565b611443611436565b61144e818484611411565b505050565b5b818110156114725761146760008261143b565b600181019050611454565b5050565b601f8211156114b75761148881611361565b61149184611376565b810160208510156114a0578190505b6114b46114ac85611376565b830182611453565b50505b505050565b600082821c905092915050565b60006114da600019846008026114bc565b1980831691505092915050565b60006114f383836114c9565b9150826002028217905092915050565b61150c82610cb7565b67ffffffffffffffff81111561152557611524610aa1565b5b61152f8254611330565b61153a828285611476565b600060209050601f83116001811461156d576000841561155b578287015190505b61156585826114e7565b8655506115cd565b601f19841661157b86611361565b60005b828110156115a35784890151825560018201915060208501945060208101905061157e565b868310156115c057848901516115bc601f8916826114c9565b8355505b6001600288020188555050505b505050505050565b60006040820190506115ea6000830185610ea4565b6115f76020830184610ea4565b9392505050565b7f4e6f20726573756c747320666f756e6421000000000000000000000000000000600082015250565b6000611634601183610eb3565b915061163f826115fe565b602082019050919050565b6000602082019050818103600083015261166381611627565b9050919050565b7f4e487b7100000000000000000000000000000000000000000000000000000000600052603260045260246000fdfea2646970667358221220c3502c02c89144873762774b70806ddca4b59d39cbc85fd2f97bd1bd28a46dd164736f6c634300081c0033",
  "linkReferences": {},
  "deployedLinkReferences": {}
}