{
  "_format": "hh-sol-artifact-1",
  "contractName": "ExamManager",
  "sourceName": "contracts/ExamManager.sol",
  "abi": [
    {
      "inputs": [],
      "stateMutability": "nonpayable",
      "type": "constructor"
    },
    {
      "anonymous": false,
      "inputs": [
        {
          "indexed": true,
          "internalType": "address",
          "name": "newAdmin",
          "type": "address"
        }
      ],
      "name": "AdminAdded",
      "type": "event"
    },
    {
      "anonymous": false,
      "inputs": [
        {
          "indexed": true,
          "internalType": "address",
          "name": "oldAdmin",
          "type": "address"
        },
        {
          "indexed": true,
          "internalType": "address",
          "name": "newAdmin",
          "type": "address"
        }
      ],
      "name": "AdminTransferred",
      "type": "event"
    },
    {
      "anonymous": false,
      "inputs": [
        {
          "indexed": true,
          "internalType": "uint256",
          "name": "examId",
          "type": "uint256"
        }
      ],
      "name": "ExamActivated",
      "type": "event"
    },
    {
      "anonymous": false,
      "inputs": [
        {
          "indexed": true,
          "internalType": "uint256",
          "name": "examId",
          "type": "uint256"
        },
        {
          "indexed": false,
          "internalType": "string",
          "name": "name",
          "type": "string"
        },
        {
          "indexed": false,
          "internalType": "uint256",
          "name": "date",
          "type": "uint256"
        },
        {
          "indexed": false,
          "internalType": "uint256",
          "name": "duration",
          "type": "uint256"
        },
        {
          "indexed": false,
          "internalType": "address",
          "name": "admin",
          "type": "address"
        },
        {
          "indexed": false,
          "internalType": "string",
          "name": "ipfsHash",
          "type": "string"
        }
      ],
      "name": "ExamCreated",
      "type": "event"
    },
    {
      "anonymous": false,
      "inputs": [
        {
          "indexed": true,
          "internalType": "uint256",
          "name": "examId",
          "type": "uint256"
        }
      ],
      "name": "ExamDeactivated",
      "type": "event"
    },
    {
      "anonymous": false,
      "inputs": [
        {
          "indexed": true,
          "internalType": "uint256",
          "name": "examId",
          "type": "uint256"
        },
        {
          "indexed": false,
          "internalType": "string",
          "name": "name",
          "type": "string"
        },
        {
          "indexed": false,
          "internalType": "uint256",
          "name": "date",
          "type": "uint256"
        },
        {
          "indexed": false,
          "internalType": "uint256",
          "name": "duration",
          "type": "uint256"
        },
        {
          "indexed": false,
          "internalType": "string",
          "name": "ipfsHash",
          "type": "string"
        }
      ],
      "name": "ExamUpdated",
      "type": "event"
    },
    {
      "inputs": [
        {
          "internalType": "uint256",
          "name": "_examId",
          "type": "uint256"
        }
      ],
      "name": "activateExam",
      "outputs": [],
      "stateMutability": "nonpayable",
      "type": "function"
    },
    {
      "inputs": [
        {
          "internalType": "address",
          "name": "_admin",
          "type": "address"
        }
      ],
      "name": "addAdmin",
      "outputs": [],
      "stateMutability": "nonpayable",
      "type": "function"
    },
    {
      "inputs": [],
      "name": "admin",
      "outputs": [
        {
          "internalType": "address",
          "name": "",
          "type": "address"
        }
      ],
      "stateMutability": "view",
      "type": "function"
    },
    {
      "inputs": [
        {
          "internalType": "string",
          "name": "_name",
          "type": "string"
        },
        {
          "internalType": "uint256",
          "name": "_date",
          "type": "uint256"
        },
        {
          "internalType": "uint256",
          "name": "_duration",
          "type": "uint256"
        },
        {
          "internalType": "string",
          "name": "_ipfsHash",
          "type": "string"
        }
      ],
      "name": "createExam",
      "outputs": [],
      "stateMutability": "nonpayable",
      "type": "function"
    },
    {
      "inputs": [
        {
          "internalType": "uint256",
          "name": "_examId",
          "type": "uint256"
        }
      ],
      "name": "deactivateExam",
      "outputs": [],
      "stateMutability": "nonpayable",
      "type": "function"
    },
    {
      "inputs": [
        {
          "internalType": "uint256",
          "name": "",
          "type": "uint256"
        }
      ],
      "name": "exams",
      "outputs": [
        {
          "internalType": "uint256",
          "name": "id",
          "type": "uint256"
        },
        {
          "internalType": "string",
          "name": "name",
          "type": "string"
        },
        {
          "internalType": "uint256",
          "name": "date",
          "type": "uint256"
        },
        {
          "internalType": "uint256",
          "name": "duration",
          "type": "uint256"
        },
        {
          "internalType": "address",
          "name": "admin",
          "type": "address"
        },
        {
          "internalType": "bool",
          "name": "isActivated",
          "type": "bool"
        },
        {
          "internalType": "string",
          "name": "ipfsHash",
          "type": "string"
        }
      ],
      "stateMutability": "view",
      "type": "function"
    },
    {
      "inputs": [],
      "name": "getCurrentTimestamp",
      "outputs": [
        {
          "internalType": "uint256",
          "name": "",
          "type": "uint256"
        }
      ],
      "stateMutability": "view",
      "type": "function"
    },
    {
      "inputs": [
        {
          "internalType": "uint256",
          "name": "_examId",
          "type": "uint256"
        }
      ],
      "name": "getExam",
      "outputs": [
        {
          "internalType": "string",
          "name": "",
          "type": "string"
        },
        {
          "internalType": "uint256",
          "name": "",
          "type": "uint256"
        },
        {
          "internalType": "uint256",
          "name": "",
          "type": "uint256"
        },
        {
          "internalType": "address",
          "name": "",
          "type": "address"
        },
        {
          "internalType": "bool",
          "name": "",
          "type": "bool"
        },
        {
          "internalType": "string",
          "name": "",
          "type": "string"
        }
      ],
      "stateMutability": "view",
      "type": "function"
    },
    {
      "inputs": [
        {
          "internalType": "address",
          "name": "",
          "type": "address"
        }
      ],
      "name": "isAdmin",
      "outputs": [
        {
          "internalType": "bool",
          "name": "",
          "type": "bool"
        }
      ],
      "stateMutability": "view",
      "type": "function"
    },
    {
      "inputs": [],
      "name": "nextExamId",
      "outputs": [
        {
          "internalType": "uint256",
          "name": "",
          "type": "uint256"
        }
      ],
      "stateMutability": "view",
      "type": "function"
    },
    {
      "inputs": [
        {
          "internalType": "address",
          "name": "newAdmin",
          "type": "address"
        }
      ],
      "name": "transferAdmin",
      "outputs": [],
      "stateMutability": "nonpayable",
      "type": "function"
    },
    {
      "inputs": [
        {
          "internalType": "uint256",
          "name": "_examId",
          "type": "uint256"
        },
        {
          "internalType": "string",
          "name": "_name",
          "type": "string"
        },
        {
          "internalType": "uint256",
          "name": "_date",
          "type": "uint256"
        },
        {
          "internalType": "uint256",
          "name": "_duration",
          "type": "uint256"
        },
        {
          "internalType": "string",
          "name": "_ipfsHash",
          "type": "string"
        }
      ],
      "name": "updateExam",
      "outputs": [],
      "stateMutability": "nonpayable",
      "type": "function"
    }
  ],
  "bytecode": "0x60806040526000600255348015601457600080fd5b50336000806101000a81548173ffffffffffffffffffffffffffffffffffffffff021916908373ffffffffffffffffffffffffffffffffffffffff16021790555060018060003373ffffffffffffffffffffffffffffffffffffffff1673ffffffffffffffffffffffffffffffffffffffff16815260200190815260200160002060006101000a81548160ff0219169083151502179055506121d8806100bb6000396000f3fe608060405234801561001057600080fd5b50600436106100b45760003560e01c806375829def1161007157806375829def146101935780638306c976146101af578063aec670c3146101cb578063b359340e146101e7578063f851a44014610203578063f97563d514610221576100b4565b806320d840d3146100b957806324d7806c146100d75780634198cb3f146101075780634c0f11611461013d5780636c9230db146101595780637048027514610177575b600080fd5b6100c1610256565b6040516100ce91906113de565b60405180910390f35b6100f160048036038101906100ec919061146b565b61025c565b6040516100fe91906114b3565b60405180910390f35b610121600480360381019061011c91906114fa565b61027c565b60405161013497969594939291906115c6565b60405180910390f35b610157600480360381019061015291906114fa565b6103fb565b005b610161610580565b60405161016e91906113de565b60405180910390f35b610191600480360381019061018c919061146b565b610588565b005b6101ad60048036038101906101a8919061146b565b610794565b005b6101c960048036038101906101c49190611778565b6109a9565b005b6101e560048036038101906101e0919061188b565b610c17565b005b61020160048036038101906101fc91906114fa565b610f83565b005b61020b6111c5565b6040516102189190611932565b60405180910390f35b61023b600480360381019061023691906114fa565b6111e9565b60405161024d9695949392919061194d565b60405180910390f35b60025481565b60016020528060005260406000206000915054906101000a900460ff1681565b60036020528060005260406000206000915090508060000154908060010180546102a5906119eb565b80601f01602080910402602001604051908101604052809291908181526020018280546102d1906119eb565b801561031e5780601f106102f35761010080835404028352916020019161031e565b820191906000526020600020905b81548152906001019060200180831161030157829003601f168201915b5050505050908060020154908060030154908060040160009054906101000a900473ffffffffffffffffffffffffffffffffffffffff16908060040160149054906101000a900460ff1690806005018054610378906119eb565b80601f01602080910402602001604051908101604052809291908181526020018280546103a4906119eb565b80156103f15780601f106103c6576101008083540402835291602001916103f1565b820191906000526020600020905b8154815290600101906020018083116103d457829003601f168201915b5050505050905087565b60008054906101000a900473ffffffffffffffffffffffffffffffffffffffff1673ffffffffffffffffffffffffffffffffffffffff163373ffffffffffffffffffffffffffffffffffffffff16148061049e5750600160003373ffffffffffffffffffffffffffffffffffffffff1673ffffffffffffffffffffffffffffffffffffffff16815260200190815260200160002060009054906101000a900460ff165b6104dd576040517f08c379a00000000000000000000000000000000000000000000000000000000081526004016104d490611a8e565b60405180910390fd5b6002548110610521576040517f08c379a000000000000000000000000000000000000000000000000000000000815260040161051890611afa565b60405180910390fd5b60006003600083815260200190815260200160002060040160146101000a81548160ff021916908315150217905550807f44d826d13ee2bdbfaa5972e58cd7c73bfdd92615d71235511874dc0cefaff88760405160405180910390a250565b600042905090565b60008054906101000a900473ffffffffffffffffffffffffffffffffffffffff1673ffffffffffffffffffffffffffffffffffffffff163373ffffffffffffffffffffffffffffffffffffffff16148061062b5750600160003373ffffffffffffffffffffffffffffffffffffffff1673ffffffffffffffffffffffffffffffffffffffff16815260200190815260200160002060009054906101000a900460ff165b61066a576040517f08c379a000000000000000000000000000000000000000000000000000000000815260040161066190611a8e565b60405180910390fd5b600160008273ffffffffffffffffffffffffffffffffffffffff1673ffffffffffffffffffffffffffffffffffffffff16815260200190815260200160002060009054906101000a900460ff16156106f7576040517f08c379a00000000000000000000000000000000000000000000000000000000081526004016106ee90611b66565b60405180910390fd5b60018060008373ffffffffffffffffffffffffffffffffffffffff1673ffffffffffffffffffffffffffffffffffffffff16815260200190815260200160002060006101000a81548160ff0219169083151502179055508073ffffffffffffffffffffffffffffffffffffffff167f44d6d25963f097ad14f29f06854a01f575648a1ef82f30e562ccd3889717e33960405160405180910390a250565b60008054906101000a900473ffffffffffffffffffffffffffffffffffffffff1673ffffffffffffffffffffffffffffffffffffffff163373ffffffffffffffffffffffffffffffffffffffff1614806108375750600160003373ffffffffffffffffffffffffffffffffffffffff1673ffffffffffffffffffffffffffffffffffffffff16815260200190815260200160002060009054906101000a900460ff165b610876576040517f08c379a000000000000000000000000000000000000000000000000000000000815260040161086d90611a8e565b60405180910390fd5b600073ffffffffffffffffffffffffffffffffffffffff168173ffffffffffffffffffffffffffffffffffffffff16036108e5576040517f08c379a00000000000000000000000000000000000000000000000000000000081526004016108dc90611bd2565b60405180910390fd5b60008060009054906101000a900473ffffffffffffffffffffffffffffffffffffffff169050816000806101000a81548173ffffffffffffffffffffffffffffffffffffffff021916908373ffffffffffffffffffffffffffffffffffffffff1602179055508173ffffffffffffffffffffffffffffffffffffffff168173ffffffffffffffffffffffffffffffffffffffff167ff8ccb027dfcd135e000e9d45e6cc2d662578a8825d4c45b5e32e0adf67e79ec660405160405180910390a35050565b60008054906101000a900473ffffffffffffffffffffffffffffffffffffffff1673ffffffffffffffffffffffffffffffffffffffff163373ffffffffffffffffffffffffffffffffffffffff161480610a4c5750600160003373ffffffffffffffffffffffffffffffffffffffff1673ffffffffffffffffffffffffffffffffffffffff16815260200190815260200160002060009054906101000a900460ff165b610a8b576040517f08c379a0000000000000000000000000000000000000000000000000000000008152600401610a8290611a8e565b60405180910390fd5b6002548510610acf576040517f08c379a0000000000000000000000000000000000000000000000000000000008152600401610ac690611afa565b60405180910390fd5b428311610b11576040517f08c379a0000000000000000000000000000000000000000000000000000000008152600401610b0890611c3e565b60405180910390fd5b60008211610b54576040517f08c379a0000000000000000000000000000000000000000000000000000000008152600401610b4b90611cd0565b60405180910390fd5b83600360008781526020019081526020016000206001019081610b779190611e9c565b5082600360008781526020019081526020016000206002018190555081600360008781526020019081526020016000206003018190555080600360008781526020019081526020016000206005019081610bd19190611e9c565b50847ff061822b084b948040858099480ee3907ab9e83f143d4d8b3680f7c0c37811e685858585604051610c089493929190611f6e565b60405180910390a25050505050565b60008054906101000a900473ffffffffffffffffffffffffffffffffffffffff1673ffffffffffffffffffffffffffffffffffffffff163373ffffffffffffffffffffffffffffffffffffffff161480610cba5750600160003373ffffffffffffffffffffffffffffffffffffffff1673ffffffffffffffffffffffffffffffffffffffff16815260200190815260200160002060009054906101000a900460ff165b610cf9576040517f08c379a0000000000000000000000000000000000000000000000000000000008152600401610cf090611a8e565b60405180910390fd5b428411610d3b576040517f08c379a0000000000000000000000000000000000000000000000000000000008152600401610d3290611c3e565b60405180910390fd5b60008311610d7e576040517f08c379a0000000000000000000000000000000000000000000000000000000008152600401610d7590611cd0565b60405180910390fd5b6040518060e00160405280600254815260200187878080601f016020809104026020016040519081016040528093929190818152602001838380828437600081840152601f19601f8201169050808301925050505050505081526020018581526020018481526020013373ffffffffffffffffffffffffffffffffffffffff16815260200160001515815260200183838080601f016020809104026020016040519081016040528093929190818152602001838380828437600081840152601f19601f82011690508083019250505050505050815250600360006002548152602001908152602001600020600082015181600001556020820151816001019081610e889190611e9c565b50604082015181600201556060820151816003015560808201518160040160006101000a81548173ffffffffffffffffffffffffffffffffffffffff021916908373ffffffffffffffffffffffffffffffffffffffff16021790555060a08201518160040160146101000a81548160ff02191690831515021790555060c0820151816005019081610f199190611e9c565b509050506002547fcf26f5866a55dc0c7d786b2e3f42a8da546fae6ba1fcae15b053bc98a7f175ad87878787338888604051610f5b9796959493929190611fee565b60405180910390a260026000815480929190610f7690612082565b9190505550505050505050565b60008054906101000a900473ffffffffffffffffffffffffffffffffffffffff1673ffffffffffffffffffffffffffffffffffffffff163373ffffffffffffffffffffffffffffffffffffffff1614806110265750600160003373ffffffffffffffffffffffffffffffffffffffff1673ffffffffffffffffffffffffffffffffffffffff16815260200190815260200160002060009054906101000a900460ff165b611065576040517f08c379a000000000000000000000000000000000000000000000000000000000815260040161105c90611a8e565b60405180910390fd5b60025481106110a9576040517f08c379a00000000000000000000000000000000000000000000000000000000081526004016110a090611afa565b60405180910390fd5b6003600082815260200190815260200160002060020154421015611102576040517f08c379a00000000000000000000000000000000000000000000000000000000081526004016110f990612116565b60405180910390fd5b6003600082815260200190815260200160002060040160149054906101000a900460ff1615611166576040517f08c379a000000000000000000000000000000000000000000000000000000000815260040161115d90612182565b60405180910390fd5b60016003600083815260200190815260200160002060040160146101000a81548160ff021916908315150217905550807f72982bbf1e38bf7532ded3da2b3021ec6259d86abb34a687799c951ed615119460405160405180910390a250565b60008054906101000a900473ffffffffffffffffffffffffffffffffffffffff1681565b606060008060008060606002548710611237576040517f08c379a000000000000000000000000000000000000000000000000000000000815260040161122e90611afa565b60405180910390fd5b600060036000898152602001908152602001600020905080600101816002015482600301548360040160009054906101000a900473ffffffffffffffffffffffffffffffffffffffff168460040160149054906101000a900460ff16856005018580546112a3906119eb565b80601f01602080910402602001604051908101604052809291908181526020018280546112cf906119eb565b801561131c5780601f106112f15761010080835404028352916020019161131c565b820191906000526020600020905b8154815290600101906020018083116112ff57829003601f168201915b5050505050955080805461132f906119eb565b80601f016020809104026020016040519081016040528092919081815260200182805461135b906119eb565b80156113a85780601f1061137d576101008083540402835291602001916113a8565b820191906000526020600020905b81548152906001019060200180831161138b57829003601f168201915b505050505090509650965096509650965096505091939550919395565b6000819050919050565b6113d8816113c5565b82525050565b60006020820190506113f360008301846113cf565b92915050565b6000604051905090565b600080fd5b600080fd5b600073ffffffffffffffffffffffffffffffffffffffff82169050919050565b60006114388261140d565b9050919050565b6114488161142d565b811461145357600080fd5b50565b6000813590506114658161143f565b92915050565b60006020828403121561148157611480611403565b5b600061148f84828501611456565b91505092915050565b60008115159050919050565b6114ad81611498565b82525050565b60006020820190506114c860008301846114a4565b92915050565b6114d7816113c5565b81146114e257600080fd5b50565b6000813590506114f4816114ce565b92915050565b6000602082840312156115105761150f611403565b5b600061151e848285016114e5565b91505092915050565b600081519050919050565b600082825260208201905092915050565b60005b83811015611561578082015181840152602081019050611546565b60008484015250505050565b6000601f19601f8301169050919050565b600061158982611527565b6115938185611532565b93506115a3818560208601611543565b6115ac8161156d565b840191505092915050565b6115c08161142d565b82525050565b600060e0820190506115db600083018a6113cf565b81810360208301526115ed818961157e565b90506115fc60408301886113cf565b61160960608301876113cf565b61161660808301866115b7565b61162360a08301856114a4565b81810360c0830152611635818461157e565b905098975050505050505050565b600080fd5b600080fd5b7f4e487b7100000000000000000000000000000000000000000000000000000000600052604160045260246000fd5b6116858261156d565b810181811067ffffffffffffffff821117156116a4576116a361164d565b5b80604052505050565b60006116b76113f9565b90506116c3828261167c565b919050565b600067ffffffffffffffff8211156116e3576116e261164d565b5b6116ec8261156d565b9050602081019050919050565b82818337600083830152505050565b600061171b611716846116c8565b6116ad565b90508281526020810184848401111561173757611736611648565b5b6117428482856116f9565b509392505050565b600082601f83011261175f5761175e611643565b5b813561176f848260208601611708565b91505092915050565b600080600080600060a0868803121561179457611793611403565b5b60006117a2888289016114e5565b955050602086013567ffffffffffffffff8111156117c3576117c2611408565b5b6117cf8882890161174a565b94505060406117e0888289016114e5565b93505060606117f1888289016114e5565b925050608086013567ffffffffffffffff81111561181257611811611408565b5b61181e8882890161174a565b9150509295509295909350565b600080fd5b600080fd5b60008083601f84011261184b5761184a611643565b5b8235905067ffffffffffffffff8111156118685761186761182b565b5b60208301915083600182028301111561188457611883611830565b5b9250929050565b600080600080600080608087890312156118a8576118a7611403565b5b600087013567ffffffffffffffff8111156118c6576118c5611408565b5b6118d289828a01611835565b965096505060206118e589828a016114e5565b94505060406118f689828a016114e5565b935050606087013567ffffffffffffffff81111561191757611916611408565b5b61192389828a01611835565b92509250509295509295509295565b600060208201905061194760008301846115b7565b92915050565b600060c0820190508181036000830152611967818961157e565b905061197660208301886113cf565b61198360408301876113cf565b61199060608301866115b7565b61199d60808301856114a4565b81810360a08301526119af818461157e565b9050979650505050505050565b7f4e487b7100000000000000000000000000000000000000000000000000000000600052602260045260246000fd5b60006002820490506001821680611a0357607f821691505b602082108103611a1657611a156119bc565b5b50919050565b7f4f6e6c792061646d696e2063616e20706572666f726d2074686973206163746960008201527f6f6e000000000000000000000000000000000000000000000000000000000000602082015250565b6000611a78602283611532565b9150611a8382611a1c565b604082019050919050565b60006020820190508181036000830152611aa781611a6b565b9050919050565b7f4578616d20646f6573206e6f7420657869737400000000000000000000000000600082015250565b6000611ae4601383611532565b9150611aef82611aae565b602082019050919050565b60006020820190508181036000830152611b1381611ad7565b9050919050565b7f416c726561647920616e2061646d696e00000000000000000000000000000000600082015250565b6000611b50601083611532565b9150611b5b82611b1a565b602082019050919050565b60006020820190508181036000830152611b7f81611b43565b9050919050565b7f496e76616c6964206e65772061646d696e206164647265737300000000000000600082015250565b6000611bbc601983611532565b9150611bc782611b86565b602082019050919050565b60006020820190508181036000830152611beb81611baf565b9050919050565b7f4578616d2064617465206d75737420626520696e207468652066757475726500600082015250565b6000611c28601f83611532565b9150611c3382611bf2565b602082019050919050565b60006020820190508181036000830152611c5781611c1b565b9050919050565b7f4578616d206475726174696f6e206d757374206265206772656174657220746860008201527f616e203000000000000000000000000000000000000000000000000000000000602082015250565b6000611cba602483611532565b9150611cc582611c5e565b604082019050919050565b60006020820190508181036000830152611ce981611cad565b9050919050565b60008190508160005260206000209050919050565b60006020601f8301049050919050565b600082821b905092915050565b600060088302611d527fffffffffffffffffffffffffffffffffffffffffffffffffffffffffffffffff82611d15565b611d5c8683611d15565b95508019841693508086168417925050509392505050565b6000819050919050565b6000611d99611d94611d8f846113c5565b611d74565b6113c5565b9050919050565b6000819050919050565b611db383611d7e565b611dc7611dbf82611da0565b848454611d22565b825550505050565b600090565b611ddc611dcf565b611de7818484611daa565b505050565b5b81811015611e0b57611e00600082611dd4565b600181019050611ded565b5050565b601f821115611e5057611e2181611cf0565b611e2a84611d05565b81016020851015611e39578190505b611e4d611e4585611d05565b830182611dec565b50505b505050565b600082821c905092915050565b6000611e7360001984600802611e55565b1980831691505092915050565b6000611e8c8383611e62565b9150826002028217905092915050565b611ea582611527565b67ffffffffffffffff811115611ebe57611ebd61164d565b5b611ec882546119eb565b611ed3828285611e0f565b600060209050601f831160018114611f065760008415611ef4578287015190505b611efe8582611e80565b865550611f66565b601f198416611f1486611cf0565b60005b82811015611f3c57848901518255600182019150602085019450602081019050611f17565b86831015611f595784890151611f55601f891682611e62565b8355505b6001600288020188555050505b505050505050565b60006080820190508181036000830152611f88818761157e565b9050611f9760208301866113cf565b611fa460408301856113cf565b8181036060830152611fb6818461157e565b905095945050505050565b6000611fcd8385611532565b9350611fda8385846116f9565b611fe38361156d565b840190509392505050565b600060a082019050818103600083015261200981898b611fc1565b905061201860208301886113cf565b61202560408301876113cf565b61203260608301866115b7565b8181036080830152612045818486611fc1565b905098975050505050505050565b7f4e487b7100000000000000000000000000000000000000000000000000000000600052601160045260246000fd5b600061208d826113c5565b91507fffffffffffffffffffffffffffffffffffffffffffffffffffffffffffffffff82036120bf576120be612053565b5b600182019050919050565b7f4578616d206461746520686173206e6f74207965742061727269766564000000600082015250565b6000612100601d83611532565b915061210b826120ca565b602082019050919050565b6000602082019050818103600083015261212f816120f3565b9050919050565b7f4578616d20697320616c72656164792061637469766174656400000000000000600082015250565b600061216c601983611532565b915061217782612136565b602082019050919050565b6000602082019050818103600083015261219b8161215f565b905091905056fea2646970667358221220534385be2f8cb59b20745ee39a6da52fa07cf7e9315af4a331c6f746a32cb20164736f6c634300081c0033",
  "linkReferences": {},
  "deployedLinkReferences": {}
}