{
  "_format": "hh-sol-artifact-1",
  "contractName": "ExamSubmissionManager",
  "sourceName": "contracts/ExamSubmission.sol",
  "abi": [
    {
      "inputs": [
        {
          "internalType": "address",
          "name": "_examManagerAddress",
          "type": "address"
        },
        {
          "internalType": "address",
          "name": "_studentRegistryAddress",
          "type": "address"
        }
      ],
      "stateMutability": "nonpayable",
      "type": "constructor"
    },
    {
      "anonymous": false,
      "inputs": [
        {
          "indexed": true,
          "internalType": "address",
          "name": "newAdmin",
          "type": "address"
        }
      ],
      "name": "AdminAdded",
      "type": "event"
    },
    {
      "anonymous": false,
      "inputs": [
        {
          "indexed": true,
          "internalType": "address",
          "name": "removedAdmin",
          "type": "address"
        }
      ],
      "name": "AdminRemoved",
      "type": "event"
    },
    {
      "anonymous": false,
      "inputs": [
        {
          "indexed": true,
          "internalType": "uint256",
          "name": "examId",
          "type": "uint256"
        },
        {
          "indexed": true,
          "internalType": "address",
          "name": "student",
          "type": "address"
        },
        {
          "indexed": false,
          "internalType": "string",
          "name": "ipfsHash",
          "type": "string"
        }
      ],
      "name": "ExamSubmitted",
      "type": "event"
    },
    {
      "inputs": [
        {
          "internalType": "address",
          "name": "_admin",
          "type": "address"
        }
      ],
      "name": "addAdmin",
      "outputs": [],
      "stateMutability": "nonpayable",
      "type": "function"
    },
    {
      "inputs": [],
      "name": "admin",
      "outputs": [
        {
          "internalType": "address",
          "name": "",
          "type": "address"
        }
      ],
      "stateMutability": "view",
      "type": "function"
    },
    {
      "inputs": [],
      "name": "examManager",
      "outputs": [
        {
          "internalType": "contract IExamManager",
          "name": "",
          "type": "address"
        }
      ],
      "stateMutability": "view",
      "type": "function"
    },
    {
      "inputs": [
        {
          "internalType": "uint256",
          "name": "_examId",
          "type": "uint256"
        }
      ],
      "name": "getAllSubmissionsForExam",
      "outputs": [
        {
          "components": [
            {
              "internalType": "uint256",
              "name": "examId",
              "type": "uint256"
            },
            {
              "internalType": "address",
              "name": "student",
              "type": "address"
            },
            {
              "internalType": "string",
              "name": "ipfsHash",
              "type": "string"
            },
            {
              "internalType": "bool",
              "name": "submitted",
              "type": "bool"
            }
          ],
          "internalType": "struct ExamSubmissionManager.Submission[]",
          "name": "",
          "type": "tuple[]"
        }
      ],
      "stateMutability": "view",
      "type": "function"
    },
    {
      "inputs": [
        {
          "internalType": "uint256",
          "name": "_examId",
          "type": "uint256"
        },
        {
          "internalType": "address",
          "name": "_student",
          "type": "address"
        }
      ],
      "name": "getSubmission",
      "outputs": [
        {
          "internalType": "string",
          "name": "",
          "type": "string"
        },
        {
          "internalType": "bool",
          "name": "",
          "type": "bool"
        }
      ],
      "stateMutability": "view",
      "type": "function"
    },
    {
      "inputs": [
        {
          "internalType": "address",
          "name": "",
          "type": "address"
        }
      ],
      "name": "isAdmin",
      "outputs": [
        {
          "internalType": "bool",
          "name": "",
          "type": "bool"
        }
      ],
      "stateMutability": "view",
      "type": "function"
    },
    {
      "inputs": [
        {
          "internalType": "address",
          "name": "_admin",
          "type": "address"
        }
      ],
      "name": "removeAdmin",
      "outputs": [],
      "stateMutability": "nonpayable",
      "type": "function"
    },
    {
      "inputs": [],
      "name": "studentRegistry",
      "outputs": [
        {
          "internalType": "contract IStudentRegistry",
          "name": "",
          "type": "address"
        }
      ],
      "stateMutability": "view",
      "type": "function"
    },
    {
      "inputs": [
        {
          "internalType": "uint256",
          "name": "",
          "type": "uint256"
        },
        {
          "internalType": "address",
          "name": "",
          "type": "address"
        }
      ],
      "name": "submissions",
      "outputs": [
        {
          "internalType": "uint256",
          "name": "examId",
          "type": "uint256"
        },
        {
          "internalType": "address",
          "name": "student",
          "type": "address"
        },
        {
          "internalType": "string",
          "name": "ipfsHash",
          "type": "string"
        },
        {
          "internalType": "bool",
          "name": "submitted",
          "type": "bool"
        }
      ],
      "stateMutability": "view",
      "type": "function"
    },
    {
      "inputs": [
        {
          "internalType": "uint256",
          "name": "_examId",
          "type": "uint256"
        },
        {
          "internalType": "string",
          "name": "_ipfsHash",
          "type": "string"
        }
      ],
      "name": "submitExam",
      "outputs": [],
      "stateMutability": "nonpayable",
      "type": "function"
    }
  ],
  "bytecode": "0x608060405234801561001057600080fd5b506040516123fd3803806123fd8339818101604052810190610032919061015e565b336000806101000a81548173ffffffffffffffffffffffffffffffffffffffff021916908373ffffffffffffffffffffffffffffffffffffffff16021790555081600260006101000a81548173ffffffffffffffffffffffffffffffffffffffff021916908373ffffffffffffffffffffffffffffffffffffffff16021790555080600360006101000a81548173ffffffffffffffffffffffffffffffffffffffff021916908373ffffffffffffffffffffffffffffffffffffffff160217905550505061019e565b600080fd5b600073ffffffffffffffffffffffffffffffffffffffff82169050919050565b600061012b82610100565b9050919050565b61013b81610120565b811461014657600080fd5b50565b60008151905061015881610132565b92915050565b60008060408385031215610175576101746100fb565b5b600061018385828601610149565b925050602061019485828601610149565b9150509250929050565b612250806101ad6000396000f3fe608060405234801561001057600080fd5b506004361061009e5760003560e01c80637048027511610066578063704802751461016f5780637691ce201461018b5780637c22ca14146101a957806392c16fb5146101d9578063f851a440146101f75761009e565b80630e4dbf5c146100a35780631785f53c146100d657806324d7806c146100f257806355295c491461012257806355f0e2211461013e575b600080fd5b6100bd60048036038101906100b891906112e7565b610215565b6040516100cd94939291906113f0565b60405180910390f35b6100f060048036038101906100eb919061143c565b610307565b005b61010c6004803603810190610107919061143c565b610513565b6040516101199190611469565b60405180910390f35b61013c600480360381019061013791906114e9565b610533565b005b610158600480360381019061015391906112e7565b610a9e565b604051610166929190611549565b60405180910390f35b6101896004803603810190610184919061143c565b610c2e565b005b610193610e3a565b6040516101a091906115d8565b60405180910390f35b6101c360048036038101906101be91906115f3565b610e60565b6040516101d091906117bc565b60405180910390f35b6101e16111b5565b6040516101ee91906117ff565b60405180910390f35b6101ff6111db565b60405161020c919061181a565b60405180910390f35b6004602052816000526040600020602052806000526040600020600091509150508060000154908060010160009054906101000a900473ffffffffffffffffffffffffffffffffffffffff169080600201805461027190611864565b80601f016020809104026020016040519081016040528092919081815260200182805461029d90611864565b80156102ea5780601f106102bf576101008083540402835291602001916102ea565b820191906000526020600020905b8154815290600101906020018083116102cd57829003601f168201915b5050505050908060030160009054906101000a900460ff16905084565b60008054906101000a900473ffffffffffffffffffffffffffffffffffffffff1673ffffffffffffffffffffffffffffffffffffffff163373ffffffffffffffffffffffffffffffffffffffff1614806103aa5750600160003373ffffffffffffffffffffffffffffffffffffffff1673ffffffffffffffffffffffffffffffffffffffff16815260200190815260200160002060009054906101000a900460ff165b6103e9576040517f08c379a00000000000000000000000000000000000000000000000000000000081526004016103e090611907565b60405180910390fd5b600160008273ffffffffffffffffffffffffffffffffffffffff1673ffffffffffffffffffffffffffffffffffffffff16815260200190815260200160002060009054906101000a900460ff16610475576040517f08c379a000000000000000000000000000000000000000000000000000000000815260040161046c90611973565b60405180910390fd5b6000600160008373ffffffffffffffffffffffffffffffffffffffff1673ffffffffffffffffffffffffffffffffffffffff16815260200190815260200160002060006101000a81548160ff0219169083151502179055508073ffffffffffffffffffffffffffffffffffffffff167fa3b62bc36326052d97ea62d63c3d60308ed4c3ea8ac079dd8499f1e9c4f80c0f60405160405180910390a250565b60016020528060005260406000206000915054906101000a900460ff1681565b600260009054906101000a900473ffffffffffffffffffffffffffffffffffffffff1673ffffffffffffffffffffffffffffffffffffffff166320d840d36040518163ffffffff1660e01b8152600401602060405180830381865afa1580156105a0573d6000803e3d6000fd5b505050506040513d601f19601f820116820180604052508101906105c491906119a8565b8310610605576040517f08c379a00000000000000000000000000000000000000000000000000000000081526004016105fc90611a21565b60405180910390fd5b6000600260009054906101000a900473ffffffffffffffffffffffffffffffffffffffff1673ffffffffffffffffffffffffffffffffffffffff1663f97563d5856040518263ffffffff1660e01b81526004016106629190611a41565b600060405180830381865afa15801561067f573d6000803e3d6000fd5b505050506040513d6000823e3d601f19601f820116820180604052508101906106a89190611bbe565b50945050505050806106ef576040517f08c379a00000000000000000000000000000000000000000000000000000000081526004016106e690611ccf565b60405180910390fd5b6004600085815260200190815260200160002060003373ffffffffffffffffffffffffffffffffffffffff1673ffffffffffffffffffffffffffffffffffffffff16815260200190815260200160002060030160009054906101000a900460ff1615610790576040517f08c379a000000000000000000000000000000000000000000000000000000000815260040161078790611d3b565b60405180910390fd5b6000600360009054906101000a900473ffffffffffffffffffffffffffffffffffffffff1673ffffffffffffffffffffffffffffffffffffffff16636b7b44d7336040518263ffffffff1660e01b81526004016107ed919061181a565b600060405180830381865afa15801561080a573d6000803e3d6000fd5b505050506040513d6000823e3d601f19601f820116820180604052508101906108339190611d5b565b509050600081511161087a576040517f08c379a000000000000000000000000000000000000000000000000000000000815260040161087190611e1f565b60405180910390fd5b60405180608001604052808681526020013373ffffffffffffffffffffffffffffffffffffffff16815260200185858080601f016020809104026020016040519081016040528093929190818152602001838380828437600081840152601f19601f820116905080830192505050505050508152602001600115158152506004600087815260200190815260200160002060003373ffffffffffffffffffffffffffffffffffffffff1673ffffffffffffffffffffffffffffffffffffffff1681526020019081526020016000206000820151816000015560208201518160010160006101000a81548173ffffffffffffffffffffffffffffffffffffffff021916908373ffffffffffffffffffffffffffffffffffffffff16021790555060408201518160020190816109ae9190611fe1565b5060608201518160030160006101000a81548160ff02191690831515021790555090505060056000868152602001908152602001600020339080600181540180825580915050600190039060005260206000200160009091909190916101000a81548173ffffffffffffffffffffffffffffffffffffffff021916908373ffffffffffffffffffffffffffffffffffffffff1602179055503373ffffffffffffffffffffffffffffffffffffffff16857fb452e2309f920a2d5a53744d60c96b99975b068a09c1d29ffd9f4efce5530c4d8686604051610a8f9291906120ef565b60405180910390a35050505050565b606060006004600085815260200190815260200160002060008473ffffffffffffffffffffffffffffffffffffffff1673ffffffffffffffffffffffffffffffffffffffff16815260200190815260200160002060030160009054906101000a900460ff16610b42576040517f08c379a0000000000000000000000000000000000000000000000000000000008152600401610b399061215f565b60405180910390fd5b6004600085815260200190815260200160002060008473ffffffffffffffffffffffffffffffffffffffff1673ffffffffffffffffffffffffffffffffffffffff1681526020019081526020016000206002016001818054610ba390611864565b80601f0160208091040260200160405190810160405280929190818152602001828054610bcf90611864565b8015610c1c5780601f10610bf157610100808354040283529160200191610c1c565b820191906000526020600020905b815481529060010190602001808311610bff57829003601f168201915b50505050509150915091509250929050565b60008054906101000a900473ffffffffffffffffffffffffffffffffffffffff1673ffffffffffffffffffffffffffffffffffffffff163373ffffffffffffffffffffffffffffffffffffffff161480610cd15750600160003373ffffffffffffffffffffffffffffffffffffffff1673ffffffffffffffffffffffffffffffffffffffff16815260200190815260200160002060009054906101000a900460ff165b610d10576040517f08c379a0000000000000000000000000000000000000000000000000000000008152600401610d0790611907565b60405180910390fd5b600160008273ffffffffffffffffffffffffffffffffffffffff1673ffffffffffffffffffffffffffffffffffffffff16815260200190815260200160002060009054906101000a900460ff1615610d9d576040517f08c379a0000000000000000000000000000000000000000000000000000000008152600401610d94906121cb565b60405180910390fd5b60018060008373ffffffffffffffffffffffffffffffffffffffff1673ffffffffffffffffffffffffffffffffffffffff16815260200190815260200160002060006101000a81548160ff0219169083151502179055508073ffffffffffffffffffffffffffffffffffffffff167f44d6d25963f097ad14f29f06854a01f575648a1ef82f30e562ccd3889717e33960405160405180910390a250565b600260009054906101000a900473ffffffffffffffffffffffffffffffffffffffff1681565b606060008054906101000a900473ffffffffffffffffffffffffffffffffffffffff1673ffffffffffffffffffffffffffffffffffffffff163373ffffffffffffffffffffffffffffffffffffffff161480610f055750600160003373ffffffffffffffffffffffffffffffffffffffff1673ffffffffffffffffffffffffffffffffffffffff16815260200190815260200160002060009054906101000a900460ff165b610f44576040517f08c379a0000000000000000000000000000000000000000000000000000000008152600401610f3b90611907565b60405180910390fd5b60006005600084815260200190815260200160002080549050905060008167ffffffffffffffff811115610f7b57610f7a611a61565b5b604051908082528060200260200182016040528015610fb457816020015b610fa16111ff565b815260200190600190039081610f995790505b50905060005b828110156111aa576000600560008781526020019081526020016000208281548110610fe957610fe86121eb565b5b9060005260206000200160009054906101000a900473ffffffffffffffffffffffffffffffffffffffff1690506004600087815260200190815260200160002060008273ffffffffffffffffffffffffffffffffffffffff1673ffffffffffffffffffffffffffffffffffffffff168152602001908152602001600020604051806080016040529081600082015481526020016001820160009054906101000a900473ffffffffffffffffffffffffffffffffffffffff1673ffffffffffffffffffffffffffffffffffffffff1673ffffffffffffffffffffffffffffffffffffffff1681526020016002820180546110e190611864565b80601f016020809104026020016040519081016040528092919081815260200182805461110d90611864565b801561115a5780601f1061112f5761010080835404028352916020019161115a565b820191906000526020600020905b81548152906001019060200180831161113d57829003601f168201915b505050505081526020016003820160009054906101000a900460ff161515151581525050838381518110611191576111906121eb565b5b6020026020010181905250508080600101915050610fba565b508092505050919050565b600360009054906101000a900473ffffffffffffffffffffffffffffffffffffffff1681565b60008054906101000a900473ffffffffffffffffffffffffffffffffffffffff1681565b604051806080016040528060008152602001600073ffffffffffffffffffffffffffffffffffffffff168152602001606081526020016000151581525090565b6000604051905090565b600080fd5b600080fd5b6000819050919050565b61126681611253565b811461127157600080fd5b50565b6000813590506112838161125d565b92915050565b600073ffffffffffffffffffffffffffffffffffffffff82169050919050565b60006112b482611289565b9050919050565b6112c4816112a9565b81146112cf57600080fd5b50565b6000813590506112e1816112bb565b92915050565b600080604083850312156112fe576112fd611249565b5b600061130c85828601611274565b925050602061131d858286016112d2565b9150509250929050565b61133081611253565b82525050565b61133f816112a9565b82525050565b600081519050919050565b600082825260208201905092915050565b60005b8381101561137f578082015181840152602081019050611364565b60008484015250505050565b6000601f19601f8301169050919050565b60006113a782611345565b6113b18185611350565b93506113c1818560208601611361565b6113ca8161138b565b840191505092915050565b60008115159050919050565b6113ea816113d5565b82525050565b60006080820190506114056000830187611327565b6114126020830186611336565b8181036040830152611424818561139c565b905061143360608301846113e1565b95945050505050565b60006020828403121561145257611451611249565b5b6000611460848285016112d2565b91505092915050565b600060208201905061147e60008301846113e1565b92915050565b600080fd5b600080fd5b600080fd5b60008083601f8401126114a9576114a8611484565b5b8235905067ffffffffffffffff8111156114c6576114c5611489565b5b6020830191508360018202830111156114e2576114e161148e565b5b9250929050565b60008060006040848603121561150257611501611249565b5b600061151086828701611274565b935050602084013567ffffffffffffffff8111156115315761153061124e565b5b61153d86828701611493565b92509250509250925092565b60006040820190508181036000830152611563818561139c565b905061157260208301846113e1565b9392505050565b6000819050919050565b600061159e61159961159484611289565b611579565b611289565b9050919050565b60006115b082611583565b9050919050565b60006115c2826115a5565b9050919050565b6115d2816115b7565b82525050565b60006020820190506115ed60008301846115c9565b92915050565b60006020828403121561160957611608611249565b5b600061161784828501611274565b91505092915050565b600081519050919050565b600082825260208201905092915050565b6000819050602082019050919050565b61165581611253565b82525050565b611664816112a9565b82525050565b600082825260208201905092915050565b600061168682611345565b611690818561166a565b93506116a0818560208601611361565b6116a98161138b565b840191505092915050565b6116bd816113d5565b82525050565b60006080830160008301516116db600086018261164c565b5060208301516116ee602086018261165b565b5060408301518482036040860152611706828261167b565b915050606083015161171b60608601826116b4565b508091505092915050565b600061173283836116c3565b905092915050565b6000602082019050919050565b600061175282611620565b61175c818561162b565b93508360208202850161176e8561163c565b8060005b858110156117aa578484038952815161178b8582611726565b94506117968361173a565b925060208a01995050600181019050611772565b50829750879550505050505092915050565b600060208201905081810360008301526117d68184611747565b905092915050565b60006117e9826115a5565b9050919050565b6117f9816117de565b82525050565b600060208201905061181460008301846117f0565b92915050565b600060208201905061182f6000830184611336565b92915050565b7f4e487b7100000000000000000000000000000000000000000000000000000000600052602260045260246000fd5b6000600282049050600182168061187c57607f821691505b60208210810361188f5761188e611835565b5b50919050565b7f4f6e6c792061646d696e2063616e206d616e616765207375626d697373696f6e60008201527f7300000000000000000000000000000000000000000000000000000000000000602082015250565b60006118f1602183611350565b91506118fc82611895565b604082019050919050565b60006020820190508181036000830152611920816118e4565b9050919050565b7f4e6f7420616e2061646d696e0000000000000000000000000000000000000000600082015250565b600061195d600c83611350565b915061196882611927565b602082019050919050565b6000602082019050818103600083015261198c81611950565b9050919050565b6000815190506119a28161125d565b92915050565b6000602082840312156119be576119bd611249565b5b60006119cc84828501611993565b91505092915050565b7f4578616d20646f6573206e6f7420657869737400000000000000000000000000600082015250565b6000611a0b601383611350565b9150611a16826119d5565b602082019050919050565b60006020820190508181036000830152611a3a816119fe565b9050919050565b6000602082019050611a566000830184611327565b92915050565b600080fd5b7f4e487b7100000000000000000000000000000000000000000000000000000000600052604160045260246000fd5b611a998261138b565b810181811067ffffffffffffffff82111715611ab857611ab7611a61565b5b80604052505050565b6000611acb61123f565b9050611ad78282611a90565b919050565b600067ffffffffffffffff821115611af757611af6611a61565b5b611b008261138b565b9050602081019050919050565b6000611b20611b1b84611adc565b611ac1565b905082815260208101848484011115611b3c57611b3b611a5c565b5b611b47848285611361565b509392505050565b600082601f830112611b6457611b63611484565b5b8151611b74848260208601611b0d565b91505092915050565b600081519050611b8c816112bb565b92915050565b611b9b816113d5565b8114611ba657600080fd5b50565b600081519050611bb881611b92565b92915050565b60008060008060008060c08789031215611bdb57611bda611249565b5b600087015167ffffffffffffffff811115611bf957611bf861124e565b5b611c0589828a01611b4f565b9650506020611c1689828a01611993565b9550506040611c2789828a01611993565b9450506060611c3889828a01611b7d565b9350506080611c4989828a01611ba9565b92505060a087015167ffffffffffffffff811115611c6a57611c6961124e565b5b611c7689828a01611b4f565b9150509295509295509295565b7f4578616d206973206e6f74206163746976650000000000000000000000000000600082015250565b6000611cb9601283611350565b9150611cc482611c83565b602082019050919050565b60006020820190508181036000830152611ce881611cac565b9050919050565b7f416c7265616479207375626d6974746564000000000000000000000000000000600082015250565b6000611d25601183611350565b9150611d3082611cef565b602082019050919050565b60006020820190508181036000830152611d5481611d18565b9050919050565b60008060408385031215611d7257611d71611249565b5b600083015167ffffffffffffffff811115611d9057611d8f61124e565b5b611d9c85828601611b4f565b925050602083015167ffffffffffffffff811115611dbd57611dbc61124e565b5b611dc985828601611b4f565b9150509250929050565b7f53747564656e74206973206e6f74207265676973746572656400000000000000600082015250565b6000611e09601983611350565b9150611e1482611dd3565b602082019050919050565b60006020820190508181036000830152611e3881611dfc565b9050919050565b60008190508160005260206000209050919050565b60006020601f8301049050919050565b600082821b905092915050565b600060088302611ea17fffffffffffffffffffffffffffffffffffffffffffffffffffffffffffffffff82611e64565b611eab8683611e64565b95508019841693508086168417925050509392505050565b6000611ede611ed9611ed484611253565b611579565b611253565b9050919050565b6000819050919050565b611ef883611ec3565b611f0c611f0482611ee5565b848454611e71565b825550505050565b600090565b611f21611f14565b611f2c818484611eef565b505050565b5b81811015611f5057611f45600082611f19565b600181019050611f32565b5050565b601f821115611f9557611f6681611e3f565b611f6f84611e54565b81016020851015611f7e578190505b611f92611f8a85611e54565b830182611f31565b50505b505050565b600082821c905092915050565b6000611fb860001984600802611f9a565b1980831691505092915050565b6000611fd18383611fa7565b9150826002028217905092915050565b611fea82611345565b67ffffffffffffffff81111561200357612002611a61565b5b61200d8254611864565b612018828285611f54565b600060209050601f83116001811461204b5760008415612039578287015190505b6120438582611fc5565b8655506120ab565b601f19841661205986611e3f565b60005b828110156120815784890151825560018201915060208501945060208101905061205c565b8683101561209e578489015161209a601f891682611fa7565b8355505b6001600288020188555050505b505050505050565b82818337600083830152505050565b60006120ce8385611350565b93506120db8385846120b3565b6120e48361138b565b840190509392505050565b6000602082019050818103600083015261210a8184866120c2565b90509392505050565b7f4e6f207375626d697373696f6e20666f756e6400000000000000000000000000600082015250565b6000612149601383611350565b915061215482612113565b602082019050919050565b600060208201905081810360008301526121788161213c565b9050919050565b7f416c726561647920616e2061646d696e00000000000000000000000000000000600082015250565b60006121b5601083611350565b91506121c08261217f565b602082019050919050565b600060208201905081810360008301526121e4816121a8565b9050919050565b7f4e487b7100000000000000000000000000000000000000000000000000000000600052603260045260246000fdfea2646970667358221220859f53a9d4a28fe2cb7ce22b3fbe2d702bc9271bf84bf8a728419aebb5ee061264736f6c634300081c0033",
  "linkReferences": {},
  "deployedLinkReferences": {}
}