{
  "_format": "hh-sol-artifact-1",
  "contractName": "StudentRegistry",
  "sourceName": "contracts/RegisterStudent.sol",
  "abi": [
    {
      "inputs": [],
      "stateMutability": "nonpayable",
      "type": "constructor"
    },
    {
      "anonymous": false,
      "inputs": [
        {
          "indexed": true,
          "internalType": "address",
          "name": "student",
          "type": "address"
        },
        {
          "indexed": false,
          "internalType": "string",
          "name": "name",
          "type": "string"
        },
        {
          "indexed": false,
          "internalType": "string",
          "name": "rollNo",
          "type": "string"
        },
        {
          "indexed": false,
          "internalType": "string",
          "name": "ipfsHash",
          "type": "string"
        }
      ],
      "name": "StudentRegistered",
      "type": "event"
    },
    {
      "anonymous": false,
      "inputs": [
        {
          "indexed": true,
          "internalType": "address",
          "name": "student",
          "type": "address"
        },
        {
          "indexed": false,
          "internalType": "string",
          "name": "name",
          "type": "string"
        },
        {
          "indexed": false,
          "internalType": "string",
          "name": "rollNo",
          "type": "string"
        },
        {
          "indexed": false,
          "internalType": "string",
          "name": "ipfsHash",
          "type": "string"
        }
      ],
      "name": "StudentUpdated",
      "type": "event"
    },
    {
      "inputs": [],
      "name": "admin",
      "outputs": [
        {
          "internalType": "address",
          "name": "",
          "type": "address"
        }
      ],
      "stateMutability": "view",
      "type": "function"
    },
    {
      "inputs": [
        {
          "internalType": "address",
          "name": "_student",
          "type": "address"
        }
      ],
      "name": "getStudent",
      "outputs": [
        {
          "internalType": "string",
          "name": "",
          "type": "string"
        },
        {
          "internalType": "string",
          "name": "",
          "type": "string"
        },
        {
          "internalType": "string",
          "name": "",
          "type": "string"
        }
      ],
      "stateMutability": "view",
      "type": "function"
    },
    {
      "inputs": [
        {
          "internalType": "string",
          "name": "_name",
          "type": "string"
        },
        {
          "internalType": "string",
          "name": "_rollNo",
          "type": "string"
        },
        {
          "internalType": "string",
          "name": "_ipfsHash",
          "type": "string"
        }
      ],
      "name": "registerStudent",
      "outputs": [],
      "stateMutability": "nonpayable",
      "type": "function"
    },
    {
      "inputs": [
        {
          "internalType": "address",
          "name": "",
          "type": "address"
        }
      ],
      "name": "students",
      "outputs": [
        {
          "internalType": "string",
          "name": "name",
          "type": "string"
        },
        {
          "internalType": "string",
          "name": "rollNo",
          "type": "string"
        },
        {
          "internalType": "string",
          "name": "ipfsHash",
          "type": "string"
        }
      ],
      "stateMutability": "view",
      "type": "function"
    },
    {
      "inputs": [
        {
          "internalType": "address",
          "name": "_student",
          "type": "address"
        },
        {
          "internalType": "string",
          "name": "_name",
          "type": "string"
        },
        {
          "internalType": "string",
          "name": "_rollNo",
          "type": "string"
        },
        {
          "internalType": "string",
          "name": "_ipfsHash",
          "type": "string"
        }
      ],
      "name": "updateStudent",
      "outputs": [],
      "stateMutability": "nonpayable",
      "type": "function"
    }
  ],
  "bytecode": "0x6080604052348015600f57600080fd5b50336000806101000a81548173ffffffffffffffffffffffffffffffffffffffff021916908373ffffffffffffffffffffffffffffffffffffffff16021790555061126c8061005f6000396000f3fe608060405234801561001057600080fd5b50600436106100575760003560e01c8063105cbcdc1461005c5780636b7b44d71461007857806393e47f15146100aa578063a6c807a9146100c6578063f851a440146100f8575b600080fd5b61007660048036038101906100719190610b60565b610116565b005b610092600480360381019061008d9190610c1b565b61032e565b6040516100a193929190610cc7565b60405180910390f35b6100c460048036038101906100bf9190610d13565b61063b565b005b6100e060048036038101906100db9190610c1b565b6107c2565b6040516100ef93929190610cc7565b60405180910390f35b610100610984565b60405161010d9190610dc9565b60405180910390f35b60008054906101000a900473ffffffffffffffffffffffffffffffffffffffff1673ffffffffffffffffffffffffffffffffffffffff163373ffffffffffffffffffffffffffffffffffffffff16146101a4576040517f08c379a000000000000000000000000000000000000000000000000000000000815260040161019b90610e56565b60405180910390fd5b836000600160008373ffffffffffffffffffffffffffffffffffffffff1673ffffffffffffffffffffffffffffffffffffffff16815260200190815260200160002060000180546101f490610ea5565b905011610236576040517f08c379a000000000000000000000000000000000000000000000000000000000815260040161022d90610f22565b60405180910390fd5b604051806060016040528085815260200184815260200183815250600160008773ffffffffffffffffffffffffffffffffffffffff1673ffffffffffffffffffffffffffffffffffffffff16815260200190815260200160002060008201518160000190816102a591906110f8565b5060208201518160010190816102bb91906110f8565b5060408201518160020190816102d191906110f8565b509050508473ffffffffffffffffffffffffffffffffffffffff167f547a3c8b13d2a4325772de411776385df55be6e22ce4b684f7cd20aafea97c7885858560405161031f93929190610cc7565b60405180910390a25050505050565b60608060606000600160008673ffffffffffffffffffffffffffffffffffffffff1673ffffffffffffffffffffffffffffffffffffffff168152602001908152602001600020600001805461038290610ea5565b9050116103c4576040517f08c379a00000000000000000000000000000000000000000000000000000000081526004016103bb90610f22565b60405180910390fd5b600160008573ffffffffffffffffffffffffffffffffffffffff1673ffffffffffffffffffffffffffffffffffffffff168152602001908152602001600020600001600160008673ffffffffffffffffffffffffffffffffffffffff1673ffffffffffffffffffffffffffffffffffffffff168152602001908152602001600020600101600160008773ffffffffffffffffffffffffffffffffffffffff1673ffffffffffffffffffffffffffffffffffffffff16815260200190815260200160002060020182805461049690610ea5565b80601f01602080910402602001604051908101604052809291908181526020018280546104c290610ea5565b801561050f5780601f106104e45761010080835404028352916020019161050f565b820191906000526020600020905b8154815290600101906020018083116104f257829003601f168201915b5050505050925081805461052290610ea5565b80601f016020809104026020016040519081016040528092919081815260200182805461054e90610ea5565b801561059b5780601f106105705761010080835404028352916020019161059b565b820191906000526020600020905b81548152906001019060200180831161057e57829003601f168201915b505050505091508080546105ae90610ea5565b80601f01602080910402602001604051908101604052809291908181526020018280546105da90610ea5565b80156106275780601f106105fc57610100808354040283529160200191610627565b820191906000526020600020905b81548152906001019060200180831161060a57829003601f168201915b505050505090509250925092509193909250565b6000600160003373ffffffffffffffffffffffffffffffffffffffff1673ffffffffffffffffffffffffffffffffffffffff168152602001908152602001600020600001805461068a90610ea5565b9050146106cc576040517f08c379a00000000000000000000000000000000000000000000000000000000081526004016106c390611216565b60405180910390fd5b604051806060016040528084815260200183815260200182815250600160003373ffffffffffffffffffffffffffffffffffffffff1673ffffffffffffffffffffffffffffffffffffffff168152602001908152602001600020600082015181600001908161073b91906110f8565b50602082015181600101908161075191906110f8565b50604082015181600201908161076791906110f8565b509050503373ffffffffffffffffffffffffffffffffffffffff167f8823cc416ad0a1d2daf55ad9ad5f416ddf37a59230f0197f7c4fb404c903cd0b8484846040516107b593929190610cc7565b60405180910390a2505050565b60016020528060005260406000206000915090508060000180546107e590610ea5565b80601f016020809104026020016040519081016040528092919081815260200182805461081190610ea5565b801561085e5780601f106108335761010080835404028352916020019161085e565b820191906000526020600020905b81548152906001019060200180831161084157829003601f168201915b50505050509080600101805461087390610ea5565b80601f016020809104026020016040519081016040528092919081815260200182805461089f90610ea5565b80156108ec5780601f106108c1576101008083540402835291602001916108ec565b820191906000526020600020905b8154815290600101906020018083116108cf57829003601f168201915b50505050509080600201805461090190610ea5565b80601f016020809104026020016040519081016040528092919081815260200182805461092d90610ea5565b801561097a5780601f1061094f5761010080835404028352916020019161097a565b820191906000526020600020905b81548152906001019060200180831161095d57829003601f168201915b5050505050905083565b60008054906101000a900473ffffffffffffffffffffffffffffffffffffffff1681565b6000604051905090565b600080fd5b600080fd5b600073ffffffffffffffffffffffffffffffffffffffff82169050919050565b60006109e7826109bc565b9050919050565b6109f7816109dc565b8114610a0257600080fd5b50565b600081359050610a14816109ee565b92915050565b600080fd5b600080fd5b6000601f19601f8301169050919050565b7f4e487b7100000000000000000000000000000000000000000000000000000000600052604160045260246000fd5b610a6d82610a24565b810181811067ffffffffffffffff82111715610a8c57610a8b610a35565b5b80604052505050565b6000610a9f6109a8565b9050610aab8282610a64565b919050565b600067ffffffffffffffff821115610acb57610aca610a35565b5b610ad482610a24565b9050602081019050919050565b82818337600083830152505050565b6000610b03610afe84610ab0565b610a95565b905082815260208101848484011115610b1f57610b1e610a1f565b5b610b2a848285610ae1565b509392505050565b600082601f830112610b4757610b46610a1a565b5b8135610b57848260208601610af0565b91505092915050565b60008060008060808587031215610b7a57610b796109b2565b5b6000610b8887828801610a05565b945050602085013567ffffffffffffffff811115610ba957610ba86109b7565b5b610bb587828801610b32565b935050604085013567ffffffffffffffff811115610bd657610bd56109b7565b5b610be287828801610b32565b925050606085013567ffffffffffffffff811115610c0357610c026109b7565b5b610c0f87828801610b32565b91505092959194509250565b600060208284031215610c3157610c306109b2565b5b6000610c3f84828501610a05565b91505092915050565b600081519050919050565b600082825260208201905092915050565b60005b83811015610c82578082015181840152602081019050610c67565b60008484015250505050565b6000610c9982610c48565b610ca38185610c53565b9350610cb3818560208601610c64565b610cbc81610a24565b840191505092915050565b60006060820190508181036000830152610ce18186610c8e565b90508181036020830152610cf58185610c8e565b90508181036040830152610d098184610c8e565b9050949350505050565b600080600060608486031215610d2c57610d2b6109b2565b5b600084013567ffffffffffffffff811115610d4a57610d496109b7565b5b610d5686828701610b32565b935050602084013567ffffffffffffffff811115610d7757610d766109b7565b5b610d8386828701610b32565b925050604084013567ffffffffffffffff811115610da457610da36109b7565b5b610db086828701610b32565b9150509250925092565b610dc3816109dc565b82525050565b6000602082019050610dde6000830184610dba565b92915050565b7f4f6e6c792061646d696e2063616e20706572666f726d2074686973206163746960008201527f6f6e000000000000000000000000000000000000000000000000000000000000602082015250565b6000610e40602283610c53565b9150610e4b82610de4565b604082019050919050565b60006020820190508181036000830152610e6f81610e33565b9050919050565b7f4e487b7100000000000000000000000000000000000000000000000000000000600052602260045260246000fd5b60006002820490506001821680610ebd57607f821691505b602082108103610ed057610ecf610e76565b5b50919050565b7f53747564656e74206e6f74207265676973746572656400000000000000000000600082015250565b6000610f0c601683610c53565b9150610f1782610ed6565b602082019050919050565b60006020820190508181036000830152610f3b81610eff565b9050919050565b60008190508160005260206000209050919050565b60006020601f8301049050919050565b600082821b905092915050565b600060088302610fa47fffffffffffffffffffffffffffffffffffffffffffffffffffffffffffffffff82610f67565b610fae8683610f67565b95508019841693508086168417925050509392505050565b6000819050919050565b6000819050919050565b6000610ff5610ff0610feb84610fc6565b610fd0565b610fc6565b9050919050565b6000819050919050565b61100f83610fda565b61102361101b82610ffc565b848454610f74565b825550505050565b600090565b61103861102b565b611043818484611006565b505050565b5b818110156110675761105c600082611030565b600181019050611049565b5050565b601f8211156110ac5761107d81610f42565b61108684610f57565b81016020851015611095578190505b6110a96110a185610f57565b830182611048565b50505b505050565b600082821c905092915050565b60006110cf600019846008026110b1565b1980831691505092915050565b60006110e883836110be565b9150826002028217905092915050565b61110182610c48565b67ffffffffffffffff81111561111a57611119610a35565b5b6111248254610ea5565b61112f82828561106b565b600060209050601f8311600181146111625760008415611150578287015190505b61115a85826110dc565b8655506111c2565b601f19841661117086610f42565b60005b8281101561119857848901518255600182019150602085019450602081019050611173565b868310156111b557848901516111b1601f8916826110be565b8355505b6001600288020188555050505b505050505050565b7f416c726561647920726567697374657265640000000000000000000000000000600082015250565b6000611200601283610c53565b915061120b826111ca565b602082019050919050565b6000602082019050818103600083015261122f816111f3565b905091905056fea26469706673582212207981ecd198e741fab107056093c7c629ae61d743addf8372e7f3002540919af664736f6c634300081c0033",
  "linkReferences": {},
  "deployedLinkReferences": {}
}